{
  "contractName": "Daimon",
  "abi": [
    {
      "inputs": [
        {
          "name": "name",
          "type": "string"
        },
        {
          "name": "symbol",
          "type": "string"
        },
        {
          "name": "decimals",
          "type": "uint8"
        },
        {
          "name": "problemDefinitionPeriodInSeconds",
          "type": "uint256"
        },
        {
          "name": "blockTimeInSeconds",
          "type": "uint256"
        }
      ],
      "payable": false,
      "stateMutability": "nonpayable",
      "type": "constructor"
    },
    {
      "anonymous": false,
      "inputs": [
        {
          "indexed": false,
          "name": "submitter",
          "type": "address"
        },
        {
          "indexed": false,
          "name": "testSetDigest",
          "type": "bytes32"
        },
        {
          "indexed": false,
          "name": "position",
          "type": "uint256"
        },
        {
          "indexed": false,
          "name": "endAt",
          "type": "uint256"
        }
      ],
      "name": "TestSetSubmitted",
      "type": "event"
    },
    {
      "anonymous": false,
      "inputs": [
        {
          "indexed": false,
          "name": "submitter",
          "type": "address"
        },
        {
          "indexed": false,
          "name": "modelDigest",
          "type": "bytes32"
        },
        {
          "indexed": false,
          "name": "position",
          "type": "uint256"
        },
        {
          "indexed": false,
          "name": "endAt",
          "type": "uint256"
        }
      ],
      "name": "ModelSubmitted",
      "type": "event"
    },
    {
      "anonymous": false,
      "inputs": [
        {
          "indexed": false,
          "name": "submitter",
          "type": "address"
        },
        {
          "indexed": false,
          "name": "modelDigest",
          "type": "bytes32"
        },
        {
          "indexed": false,
          "name": "distancesDigest",
          "type": "bytes32"
        },
        {
          "indexed": false,
          "name": "distances",
          "type": "uint256[]"
        },
        {
          "indexed": false,
          "name": "scores",
          "type": "uint256[]"
        },
        {
          "indexed": false,
          "name": "endAt",
          "type": "uint256"
        }
      ],
      "name": "BlockVoted",
      "type": "event"
    },
    {
      "anonymous": false,
      "inputs": [
        {
          "indexed": false,
          "name": "modelDigest",
          "type": "bytes32"
        },
        {
          "indexed": false,
          "name": "distancesDigest",
          "type": "bytes32"
        },
        {
          "indexed": false,
          "name": "distances",
          "type": "uint256[]"
        },
        {
          "indexed": false,
          "name": "scores",
          "type": "uint256[]"
        },
        {
          "indexed": false,
          "name": "endAt",
          "type": "uint256"
        }
      ],
      "name": "NewLeadingBlock",
      "type": "event"
    },
    {
      "anonymous": false,
      "inputs": [
        {
          "indexed": false,
          "name": "currentModelDigest",
          "type": "bytes32"
        },
        {
          "indexed": false,
          "name": "currentDistances",
          "type": "uint256[]"
        },
        {
          "indexed": false,
          "name": "nextEndAt",
          "type": "uint256"
        }
      ],
      "name": "BlockCommitted",
      "type": "event"
    },
    {
      "anonymous": false,
      "inputs": [
        {
          "indexed": false,
          "name": "blockTime",
          "type": "uint256"
        }
      ],
      "name": "NewBlockTime",
      "type": "event"
    },
    {
      "constant": false,
      "inputs": [
        {
          "name": "testDigest",
          "type": "bytes32"
        }
      ],
      "name": "submitTestSet",
      "outputs": [],
      "payable": false,
      "stateMutability": "nonpayable",
      "type": "function"
    },
    {
      "constant": false,
      "inputs": [
        {
          "name": "modelDigest",
          "type": "bytes32"
        }
      ],
      "name": "submitModel",
      "outputs": [],
      "payable": false,
      "stateMutability": "nonpayable",
      "type": "function"
    },
    {
      "constant": false,
      "inputs": [
        {
          "name": "modelDigest",
          "type": "bytes32"
        },
        {
          "name": "distances",
          "type": "uint256[]"
        },
        {
          "name": "scores",
          "type": "uint256[]"
        }
      ],
      "name": "vote",
      "outputs": [],
      "payable": false,
      "stateMutability": "nonpayable",
      "type": "function"
    },
    {
      "constant": false,
      "inputs": [],
      "name": "commit",
      "outputs": [],
      "payable": false,
      "stateMutability": "nonpayable",
      "type": "function"
    },
    {
      "constant": true,
      "inputs": [],
      "name": "getTokenAddress",
      "outputs": [
        {
          "name": "",
          "type": "address"
        }
      ],
      "payable": false,
      "stateMutability": "view",
      "type": "function"
    },
    {
      "constant": true,
      "inputs": [],
      "name": "getNumberOfTestSets",
      "outputs": [
        {
          "name": "",
          "type": "uint256"
        }
      ],
      "payable": false,
      "stateMutability": "view",
      "type": "function"
    },
    {
      "constant": true,
      "inputs": [
        {
          "name": "i",
          "type": "uint256"
        }
      ],
      "name": "getCurrentScoreAt",
      "outputs": [
        {
          "name": "",
          "type": "uint256"
        }
      ],
      "payable": false,
      "stateMutability": "view",
      "type": "function"
    },
    {
      "constant": true,
      "inputs": [
        {
          "name": "i",
          "type": "uint256"
        }
      ],
      "name": "getCurrentDistanceAt",
      "outputs": [
        {
          "name": "",
          "type": "uint256"
        }
      ],
      "payable": false,
      "stateMutability": "view",
      "type": "function"
    },
    {
      "constant": true,
      "inputs": [],
      "name": "getCurrentModelDigest",
      "outputs": [
        {
          "name": "",
          "type": "bytes32"
        }
      ],
      "payable": false,
      "stateMutability": "view",
      "type": "function"
    },
    {
      "constant": true,
      "inputs": [],
      "name": "getStartTime",
      "outputs": [
        {
          "name": "",
          "type": "uint256"
        }
      ],
      "payable": false,
      "stateMutability": "view",
      "type": "function"
    },
    {
      "constant": true,
      "inputs": [],
      "name": "getNextBlockTime",
      "outputs": [
        {
          "name": "",
          "type": "uint256"
        }
      ],
      "payable": false,
      "stateMutability": "view",
      "type": "function"
    },
    {
      "constant": true,
      "inputs": [],
      "name": "getBlockTime",
      "outputs": [
        {
          "name": "",
          "type": "uint256"
        }
      ],
      "payable": false,
      "stateMutability": "view",
      "type": "function"
    },
    {
      "constant": true,
      "inputs": [],
      "name": "getCreatedTime",
      "outputs": [
        {
          "name": "",
          "type": "uint256"
        }
      ],
      "payable": false,
      "stateMutability": "view",
      "type": "function"
    },
    {
      "constant": true,
      "inputs": [],
      "name": "getCurrentTime",
      "outputs": [
        {
          "name": "",
          "type": "uint256"
        }
      ],
      "payable": false,
      "stateMutability": "view",
      "type": "function"
    },
    {
      "constant": true,
      "inputs": [
        {
          "name": "i",
          "type": "uint256"
        }
      ],
      "name": "getTestSetDigestAt",
      "outputs": [
        {
          "name": "",
          "type": "bytes32"
        }
      ],
      "payable": false,
      "stateMutability": "view",
      "type": "function"
    },
    {
      "constant": false,
      "inputs": [
        {
          "name": "amount",
          "type": "uint256"
        },
        {
          "name": "position",
          "type": "uint256"
        }
      ],
      "name": "getRewardScaling",
      "outputs": [
        {
          "name": "",
          "type": "uint256"
        }
      ],
      "payable": false,
      "stateMutability": "nonpayable",
      "type": "function"
    },
    {
      "constant": false,
      "inputs": [
        {
          "name": "distances",
          "type": "uint256[]"
        },
        {
          "name": "scores",
          "type": "uint256[]"
        }
      ],
      "name": "getDigestDistancesScores",
      "outputs": [
        {
          "name": "digest",
          "type": "bytes32"
        }
      ],
      "payable": false,
      "stateMutability": "nonpayable",
      "type": "function"
    },
    {
      "constant": true,
      "inputs": [],
      "name": "getNumberOfModels",
      "outputs": [
        {
          "name": "",
          "type": "uint256"
        }
      ],
      "payable": false,
      "stateMutability": "view",
      "type": "function"
    },
    {
      "constant": true,
      "inputs": [
        {
          "name": "i",
          "type": "uint256"
        }
      ],
      "name": "getModelDigestAt",
      "outputs": [
        {
          "name": "",
          "type": "bytes32"
        }
      ],
      "payable": false,
      "stateMutability": "view",
      "type": "function"
    },
    {
      "constant": true,
      "inputs": [],
      "name": "multiplier",
      "outputs": [
        {
          "name": "",
          "type": "uint256"
        }
      ],
      "payable": false,
      "stateMutability": "view",
      "type": "function"
    }
  ],
  "bytecode": "0x60806040523480156200001157600080fd5b50604051620043f5380380620043f5833981018060405260a08110156200003757600080fd5b8101908080516401000000008111156200005057600080fd5b828101905060208101848111156200006757600080fd5b81518560018202830111640100000000821117156200008557600080fd5b50509291906020018051640100000000811115620000a257600080fd5b82810190506020810184811115620000b957600080fd5b8151856001820283011164010000000082111715620000d757600080fd5b5050929190602001805190602001909291908051906020019092919080519060200190929190505050848484604051620001119062000356565b8080602001806020018460ff1660ff168152602001838103835286818151815260200191508051906020019080838360005b838110156200016057808201518184015260208101905062000143565b50505050905090810190601f1680156200018e5780820380516001836020036101000a031916815260200191505b50838103825285818151815260200191508051906020019080838360005b83811015620001c9578082015181840152602081019050620001ac565b50505050905090810190601f168015620001f75780820380516001836020036101000a031916815260200191505b5095505050505050604051809103906000f0801580156200021c573d6000803e3d6000fd5b50600360006101000a81548173ffffffffffffffffffffffffffffffffffffffff021916908373ffffffffffffffffffffffffffffffffffffffff1602179055504260048190555081600454016005819055508060078190555060075460055401600681905550600360009054906101000a900473ffffffffffffffffffffffffffffffffffffffff1673ffffffffffffffffffffffffffffffffffffffff16631b3ed7226040518163ffffffff167c010000000000000000000000000000000000000000000000000000000002815260040160206040518083038186803b1580156200030857600080fd5b505afa1580156200031d573d6000803e3d6000fd5b505050506040513d60208110156200033457600080fd5b8101908080519060200190929190505050600881905550505050505062000364565b6122ce806200212783390190565b611db380620003746000396000f3fe608060405234801561001057600080fd5b5060043610610149576000357c0100000000000000000000000000000000000000000000000000000000900480638a63c506116100ca578063d77a47b61161008e578063d77a47b6146104dc578063e36bba43146104fa578063f76045e514610546578063f8c38739146106a6578063ff8b851f146106e857610149565b80638a63c50614610412578063ab38c7fe14610430578063b264768d14610472578063c828371e146104a0578063cb674838146104be57610149565b80633c7a3aff116101115780633c7a3aff14610348578063665584a814610352578063735f244b146103705780637d7106c0146103b257806387ceff09146103f457610149565b806310fe9ae81461014e57806315ca7975146101985780631b3ed722146101b657806329cb924d146101d457806331659b96146101f2575b600080fd5b610156610716565b604051808273ffffffffffffffffffffffffffffffffffffffff1673ffffffffffffffffffffffffffffffffffffffff16815260200191505060405180910390f35b6101a0610740565b6040518082815260200191505060405180910390f35b6101be61074a565b6040518082815260200191505060405180910390f35b6101dc610754565b6040518082815260200191505060405180910390f35b6103466004803603606081101561020857600080fd5b81019080803590602001909291908035906020019064010000000081111561022f57600080fd5b82018360208201111561024157600080fd5b8035906020019184602083028401116401000000008311171561026357600080fd5b919080806020026020016040519081016040528093929190818152602001838360200280828437600081840152601f19601f820116905080830192505050505050509192919290803590602001906401000000008111156102c357600080fd5b8201836020820111156102d557600080fd5b803590602001918460208302840111640100000000831117156102f757600080fd5b919080806020026020016040519081016040528093929190818152602001838360200280828437600081840152601f19601f82011690508083019250505050505050919291929050505061075c565b005b610350610e4e565b005b61035a6112ef565b6040518082815260200191505060405180910390f35b61039c6004803603602081101561038657600080fd5b81019080803590602001909291905050506112fc565b6040518082815260200191505060405180910390f35b6103de600480360360208110156103c857600080fd5b810190808035906020019092919050505061131c565b6040518082815260200191505060405180910390f35b6103fc61134e565b6040518082815260200191505060405180910390f35b61041a611358565b6040518082815260200191505060405180910390f35b61045c6004803603602081101561044657600080fd5b8101908080359060200190929190505050611362565b6040518082815260200191505060405180910390f35b61049e6004803603602081101561048857600080fd5b8101908080359060200190929190505050611383565b005b6104a8611541565b6040518082815260200191505060405180910390f35b6104c661154b565b6040518082815260200191505060405180910390f35b6104e4611558565b6040518082815260200191505060405180910390f35b6105306004803603604081101561051057600080fd5b810190808035906020019092919080359060200190929190505050611562565b6040518082815260200191505060405180910390f35b6106906004803603604081101561055c57600080fd5b810190808035906020019064010000000081111561057957600080fd5b82018360208201111561058b57600080fd5b803590602001918460208302840111640100000000831117156105ad57600080fd5b919080806020026020016040519081016040528093929190818152602001838360200280828437600081840152601f19601f8201169050808301925050505050505091929192908035906020019064010000000081111561060d57600080fd5b82018360208201111561061f57600080fd5b8035906020019184602083028401116401000000008311171561064157600080fd5b919080806020026020016040519081016040528093929190818152602001838360200280828437600081840152601f19601f820116905080830192505050505050509192919290505050611576565b6040518082815260200191505060405180910390f35b6106d2600480360360208110156106bc57600080fd5b810190808035906020019092919050505061158a565b6040518082815260200191505060405180910390f35b610714600480360360208110156106fe57600080fd5b81019080803590602001909291905050506115bc565b005b6000600360009054906101000a900473ffffffffffffffffffffffffffffffffffffffff16905090565b6000600254905090565b6000600854905090565b600042905090565b60065442106107b6576040517f08c379a0000000000000000000000000000000000000000000000000000000008152600401808060200182810382526038815260200180611d1b6038913960400191505060405180910390fd5b600980549050825114610814576040517f08c379a0000000000000000000000000000000000000000000000000000000008152600401808060200182810382526035815260200180611d536035913960400191505060405180910390fd5b60008090505b6009805490508110156108b6576000818154811061083457fe5b906000526020600020015483828151811061084b57fe5b6020026020010151106108a9576040517f08c379a0000000000000000000000000000000000000000000000000000000008152600401808060200182810382526035815260200180611cae6035913960400191505060405180910390fd5b808060010191505061081a565b5060006108c38383611834565b905060011515600b6000868152602001908152602001600020600101600083815260200190815260200160002060010160003373ffffffffffffffffffffffffffffffffffffffff1673ffffffffffffffffffffffffffffffffffffffff16815260200190815260200160002060009054906101000a900460ff16151514610e48577fcd8bd75236ff45014c5e8ab54f8753c5cf86b5deedc0244f9392aa46c010827a3385838686600654604051808773ffffffffffffffffffffffffffffffffffffffff1673ffffffffffffffffffffffffffffffffffffffff1681526020018681526020018581526020018060200180602001848152602001838103835286818151815260200191508051906020019060200280838360005b838110156109f95780820151818401526020810190506109de565b50505050905001838103825285818151815260200191508051906020019060200280838360005b83811015610a3b578082015181840152602081019050610a20565b505050509050019850505050505050505060405180910390a16001600b6000868152602001908152602001600020600101600083815260200190815260200160002060010160003373ffffffffffffffffffffffffffffffffffffffff1673ffffffffffffffffffffffffffffffffffffffff16815260200190815260200160002060006101000a81548160ff021916908315150217905550600b600085815260200190815260200160002060010160008281526020019081526020016000206000013390806001815401808255809150509060018203906000526020600020016000909192909190916101000a81548173ffffffffffffffffffffffffffffffffffffffff021916908373ffffffffffffffffffffffffffffffffffffffff1602179055505082600b600086815260200190815260200160002060010160008381526020019081526020016000206002019080519060200190610ba0929190611bf1565b5081600b600086815260200190815260200160002060010160008381526020019081526020016000206003019080519060200190610bdf929190611bf1565b5060011515600b6000868152602001908152602001600020600301600083815260200190815260200160002060009054906101000a900460ff16151514610ca1576001600b6000868152602001908152602001600020600301600083815260200190815260200160002060006101000a81548160ff021916908315150217905550600b60008581526020019081526020016000206002018190806001815401808255809150509060018203906000526020600020016000909192909190915055505b6000600b60008681526020019081526020016000206001016000838152602001908152602001600020600001805490509050600d54811115610e465784600e8190555081600f8190555060008090505b600980549050811015610d6957848181518110610d0a57fe5b602002602001015160108281548110610d1f57fe5b9060005260206000200181905550838181518110610d3957fe5b602002602001015160118281548110610d4e57fe5b90600052602060002001819055508080600101915050610cf1565b507f66e13fb634cec332a0ea89db78d1bb2036df487d1b3a40f92df3d344215ae820600e54600f54601060116006546040518086815260200185815260200180602001806020018481526020018381038352868181548152602001915080548015610df357602002820191906000526020600020905b815481526020019060010190808311610ddf575b50508381038252858181548152602001915080548015610e3257602002820191906000526020600020905b815481526020019060010190808311610e1e575b505097505050505050505060405180910390a15b505b50505050565b600654421015610ec6576040517f08c379a000000000000000000000000000000000000000000000000000000000815260040180806020018281038252601b8152602001807f766f74696e6720706572696f6420686173206e6f7420656e646564000000000081525060200191505060405180910390fd5b6000600102600e541415610ee157610edc611a6d565b6112ed565b600080905060008090505b600980549050811015610f4257610f3160118281548110610f0957fe5b906000526020600020015460018381548110610f2157fe5b9060005260206000200154611b89565b820191508080600101915050610eec565b506009805490508181610f5157fe5b049050600360009054906101000a900473ffffffffffffffffffffffffffffffffffffffff1673ffffffffffffffffffffffffffffffffffffffff166340c10f19600b6000600e54815260200190815260200160002060000160009054906101000a900473ffffffffffffffffffffffffffffffffffffffff16836040518363ffffffff167c0100000000000000000000000000000000000000000000000000000000028152600401808373ffffffffffffffffffffffffffffffffffffffff1673ffffffffffffffffffffffffffffffffffffffff16815260200182815260200192505050602060405180830381600087803b15801561105157600080fd5b505af1158015611065573d6000803e3d6000fd5b505050506040513d602081101561107b57600080fd5b81019080805190602001909291905050505060008090505b600b6000600e5481526020019081526020016000206001016000600f54815260200190815260200160002060000180549050811015611252576000600b6000600e5481526020019081526020016000206001016000600f548152602001908152602001600020600001828154811061110757fe5b9060005260206000200160009054906101000a900473ffffffffffffffffffffffffffffffffffffffff16905060006111408484611b96565b9050600360009054906101000a900473ffffffffffffffffffffffffffffffffffffffff1673ffffffffffffffffffffffffffffffffffffffff166340c10f1983836040518363ffffffff167c0100000000000000000000000000000000000000000000000000000000028152600401808373ffffffffffffffffffffffffffffffffffffffff1673ffffffffffffffffffffffffffffffffffffffff16815260200182815260200192505050602060405180830381600087803b15801561120757600080fd5b505af115801561121b573d6000803e3d6000fd5b505050506040513d602081101561123157600080fd5b81019080805190602001909291905050505050508080600101915050611093565b5060008090505b6009805490508110156112d9576010818154811061127357fe5b90600052602060002001546000828154811061128b57fe5b9060005260206000200181905550601181815481106112a657fe5b9060005260206000200154600182815481106112be57fe5b90600052602060002001819055508080600101915050611259565b50600e546002819055506112eb611a6d565b505b565b6000600c80549050905090565b600080828154811061130a57fe5b90600052602060002001549050919050565b6000600c80549050821061132f57600080fd5b600c828154811061133c57fe5b90600052602060002001549050919050565b6000600754905090565b6000600654905090565b60006001828154811061137157fe5b90600052602060002001549050919050565b6005544210156113de576040517f08c379a0000000000000000000000000000000000000000000000000000000008152600401808060200182810382526022815260200180611c8c6022913960400191505060405180910390fd5b6006544210611438576040517f08c379a0000000000000000000000000000000000000000000000000000000008152600401808060200182810382526038815260200180611ce36038913960400191505060405180910390fd5b33600b600083815260200190815260200160002060000160006101000a81548173ffffffffffffffffffffffffffffffffffffffff021916908373ffffffffffffffffffffffffffffffffffffffff160217905550600c8190806001815401808255809150509060018203906000526020600020016000909192909190915055507ffe565d00b0f00cec76ef9ce767ac7c44f7811d63c03d0765389f5f32c997047233826001600c8054905003600654604051808573ffffffffffffffffffffffffffffffffffffffff1673ffffffffffffffffffffffffffffffffffffffff16815260200184815260200183815260200182815260200194505050505060405180910390a150565b6000600554905090565b6000600980549050905090565b6000600454905090565b600061156e8383611b96565b905092915050565b60006115828383611834565b905092915050565b6000600980549050821061159d57600080fd5b600982815481106115aa57fe5b90600052602060002001549050919050565b6005544210611616576040517f08c379a0000000000000000000000000000000000000000000000000000000008152600401808060200182810382526028815260200180611c646028913960400191505060405180910390fd5b60011515600a600083815260200190815260200160002060000160149054906101000a900460ff161515146118315733600a600083815260200190815260200160002060000160006101000a81548173ffffffffffffffffffffffffffffffffffffffff021916908373ffffffffffffffffffffffffffffffffffffffff1602179055506001600a600083815260200190815260200160002060000160146101000a81548160ff021916908315150217905550600060085490806001815401808255809150509060018203906000526020600020016000909192909190915055506001600090806001815401808255809150509060018203906000526020600020016000909192909190915055506010600854908060018154018082558091505090600182039060005260206000200160009091929091909150555060116000908060018154018082558091505090600182039060005260206000200160009091929091909150555060098190806001815401808255809150509060018203906000526020600020016000909192909190915055507f5386c2797fd917b7790b9da34587c87c661d697b07d2baa565bc66f5e49b19663382600160098054905003600554604051808573ffffffffffffffffffffffffffffffffffffffff1673ffffffffffffffffffffffffffffffffffffffff16815260200184815260200183815260200182815260200194505050505060405180910390a15b50565b6000606083516040026040519080825280601f01601f19166020018201604052801561186f5781602001600182028038833980820191505090505b509050600080905060008090505b85518110156119685760606118a487838151811061189757fe5b6020026020010151611bad565b905060008090505b6020811015611959578181815181106118c157fe5b60200101517f010000000000000000000000000000000000000000000000000000000000000090047f01000000000000000000000000000000000000000000000000000000000000000285858151811061191757fe5b60200101907effffffffffffffffffffffffffffffffffffffffffffffffffffffffffffff1916908160001a90535060018401935080806001019150506118ac565b5050808060010191505061187d565b5060008090505b8451811015611a5a57606061199686838151811061198957fe5b6020026020010151611bad565b905060008090505b6020811015611a4b578181815181106119b357fe5b60200101517f010000000000000000000000000000000000000000000000000000000000000090047f010000000000000000000000000000000000000000000000000000000000000002858581518110611a0957fe5b60200101907effffffffffffffffffffffffffffffffffffffffffffffffffffffffffffff1916908160001a905350600184019350808060010191505061199e565b5050808060010191505061196f565b5081805190602001209250505092915050565b600d60009055600e60009055600f6000905560008090505b600980549050811015611af157601080549050811015611abb5760108181548110611aac57fe5b90600052602060002001600090555b601180549050811015611ae45760118181548110611ad557fe5b90600052602060002001600090555b8080600101915050611a85565b5060075442016006819055507f5c6f05af31065111f7e19d1ab8a2d4085fa6f41bfc2ac4dde11e900534f57568600254600060065460405180848152602001806020018381526020018281038252848181548152602001915080548015611b7757602002820191906000526020600020905b815481526020019060010190808311611b63575b505094505050505060405180910390a1565b6000818303905092915050565b60008160020a8381611ba457fe5b04905092915050565b606060206040519080825280601f01601f191660200182016040528015611be35781602001600182028038833980820191505090505b509050816020820152919050565b828054828255906000526020600020908101928215611c2d579160200282015b82811115611c2c578251825591602001919060010190611c11565b5b509050611c3a9190611c3e565b5090565b611c6091905b80821115611c5c576000816000905550600101611c44565b5090565b9056fe706572696f6420666f72207375626d697474696e672074657374207365742068617320656e646564766f74696e6720706572696f6420686173206e6f742073746172746564207965742e616c6c2064697374616e636573206d757374206265206c657373207468616e20616c6c2063757272656e742064697374616e636573766f74696e6720706572696f642068617320656e6465642c20706c6561736520636f6d6d6974207468697320626c6f636b2066697273742e766f74696e6720706572696f642068617320656e6465642c20706c6561736520636f6d6d6974207468697320706572696f6420666972737464697374616e636573206c656e677468206d75737420626520657175616c20746f207468652070726f626c656d73206c656e677468a165627a7a723058207953bb603b92d9a9ce0794e1df6b2ed8c79e7b47629143f78306af27fa005ae3002960806040523480156200001157600080fd5b50604051620022ce380380620022ce833981018060405260608110156200003757600080fd5b8101908080516401000000008111156200005057600080fd5b828101905060208101848111156200006757600080fd5b81518560018202830111640100000000821117156200008557600080fd5b50509291906020018051640100000000811115620000a257600080fd5b82810190506020810184811115620000b957600080fd5b8151856001820283011164010000000082111715620000d757600080fd5b505092919060200180519060200190929190505050828282620001093362000262640100000000026401000000009004565b6200012333620002cc640100000000026401000000009004565b6000600560006101000a81548160ff02191690831515021790555082600690805190602001906200015692919062000488565b5081600790805190602001906200016f92919062000488565b5080600860006101000a81548160ff021916908360ff16021790555050505033600860016101000a81548173ffffffffffffffffffffffffffffffffffffffff021916908373ffffffffffffffffffffffffffffffffffffffff160217905550600860019054906101000a900473ffffffffffffffffffffffffffffffffffffffff1673ffffffffffffffffffffffffffffffffffffffff16600073ffffffffffffffffffffffffffffffffffffffff167f8be0079c531659141344cd1fd0a4f28419497f9722a3daafe3b4186f6b6457e060405160405180910390a38060ff16600a0a60098190555050505062000537565b62000286816003620003366401000000000262001caf179091906401000000009004565b8073ffffffffffffffffffffffffffffffffffffffff167f6ae172837ea30b801fbfcdd4108aa1d5bf8ff775444fd70256b44e6bf3dfc3f660405160405180910390a250565b620002f0816004620003366401000000000262001caf179091906401000000009004565b8073ffffffffffffffffffffffffffffffffffffffff167f6719d08c1888103bea251a4ed56406bd0c3e69723c8a1686e017e7bbe159b6f860405160405180910390a250565b600073ffffffffffffffffffffffffffffffffffffffff168173ffffffffffffffffffffffffffffffffffffffff1614156200037157600080fd5b6200038c8282620003f5640100000000026401000000009004565b156200039757600080fd5b60018260000160008373ffffffffffffffffffffffffffffffffffffffff1673ffffffffffffffffffffffffffffffffffffffff16815260200190815260200160002060006101000a81548160ff0219169083151502179055505050565b60008073ffffffffffffffffffffffffffffffffffffffff168273ffffffffffffffffffffffffffffffffffffffff1614156200043157600080fd5b8260000160008373ffffffffffffffffffffffffffffffffffffffff1673ffffffffffffffffffffffffffffffffffffffff16815260200190815260200160002060009054906101000a900460ff16905092915050565b828054600181600116156101000203166002900490600052602060002090601f016020900481019282601f10620004cb57805160ff1916838001178555620004fc565b82800160010185558215620004fc579182015b82811115620004fb578251825591602001919060010190620004de565b5b5090506200050b91906200050f565b5090565b6200053491905b808211156200053057600081600090555060010162000516565b5090565b90565b611d8780620005476000396000f3fe608060405234801561001057600080fd5b50600436106101e1576000357c010000000000000000000000000000000000000000000000000000000090048063715018a611610116578063983b2d56116100b4578063a9059cbb1161008e578063a9059cbb146107e2578063aa271e1a14610848578063dd62ed3e146108a4578063f2fde38b1461091c576101e1565b8063983b2d561461072e5780639865027514610772578063a457c2d71461077c576101e1565b80638456cb59116100f05780638456cb59146106355780638da5cb5b1461063f5780638f32d59b1461068957806395d89b41146106ab576101e1565b8063715018a61461059957806379cc6790146105a357806382dc1ec4146105f1576101e1565b80633f4ba83a1161018357806346fbf68e1161015d57806346fbf68e146104b95780635c975abb146105155780636ef8d66d1461053757806370a0823114610541576101e1565b80633f4ba83a1461041b57806340c10f191461042557806342966c681461048b576101e1565b80631b3ed722116101bf5780631b3ed722146102ed57806323b872dd1461030b578063313ce5671461039157806339509351146103b5576101e1565b806306fdde03146101e6578063095ea7b31461026957806318160ddd146102cf575b600080fd5b6101ee610960565b6040518080602001828103825283818151815260200191508051906020019080838360005b8381101561022e578082015181840152602081019050610213565b50505050905090810190601f16801561025b5780820380516001836020036101000a031916815260200191505b509250505060405180910390f35b6102b56004803603604081101561027f57600080fd5b81019080803573ffffffffffffffffffffffffffffffffffffffff16906020019092919080359060200190929190505050610a02565b604051808215151515815260200191505060405180910390f35b6102d7610a30565b6040518082815260200191505060405180910390f35b6102f5610a3a565b6040518082815260200191505060405180910390f35b6103776004803603606081101561032157600080fd5b81019080803573ffffffffffffffffffffffffffffffffffffffff169060200190929190803573ffffffffffffffffffffffffffffffffffffffff16906020019092919080359060200190929190505050610a44565b604051808215151515815260200191505060405180910390f35b610399610a74565b604051808260ff1660ff16815260200191505060405180910390f35b610401600480360360408110156103cb57600080fd5b81019080803573ffffffffffffffffffffffffffffffffffffffff16906020019092919080359060200190929190505050610a8b565b604051808215151515815260200191505060405180910390f35b610423610ab9565b005b6104716004803603604081101561043b57600080fd5b81019080803573ffffffffffffffffffffffffffffffffffffffff16906020019092919080359060200190929190505050610b64565b604051808215151515815260200191505060405180910390f35b6104b7600480360360208110156104a157600080fd5b8101908080359060200190929190505050610b8c565b005b6104fb600480360360208110156104cf57600080fd5b81019080803573ffffffffffffffffffffffffffffffffffffffff169060200190929190505050610b99565b604051808215151515815260200191505060405180910390f35b61051d610bb6565b604051808215151515815260200191505060405180910390f35b61053f610bcd565b005b6105836004803603602081101561055757600080fd5b81019080803573ffffffffffffffffffffffffffffffffffffffff169060200190929190505050610bd8565b6040518082815260200191505060405180910390f35b6105a1610c20565b005b6105ef600480360360408110156105b957600080fd5b81019080803573ffffffffffffffffffffffffffffffffffffffff16906020019092919080359060200190929190505050610cf2565b005b6106336004803603602081101561060757600080fd5b81019080803573ffffffffffffffffffffffffffffffffffffffff169060200190929190505050610d00565b005b61063d610d1e565b005b610647610dca565b604051808273ffffffffffffffffffffffffffffffffffffffff1673ffffffffffffffffffffffffffffffffffffffff16815260200191505060405180910390f35b610691610df4565b604051808215151515815260200191505060405180910390f35b6106b3610e4c565b6040518080602001828103825283818151815260200191508051906020019080838360005b838110156106f35780820151818401526020810190506106d8565b50505050905090810190601f1680156107205780820380516001836020036101000a031916815260200191505b509250505060405180910390f35b6107706004803603602081101561074457600080fd5b81019080803573ffffffffffffffffffffffffffffffffffffffff169060200190929190505050610eee565b005b61077a610f0c565b005b6107c86004803603604081101561079257600080fd5b81019080803573ffffffffffffffffffffffffffffffffffffffff16906020019092919080359060200190929190505050610f17565b604051808215151515815260200191505060405180910390f35b61082e600480360360408110156107f857600080fd5b81019080803573ffffffffffffffffffffffffffffffffffffffff16906020019092919080359060200190929190505050610f45565b604051808215151515815260200191505060405180910390f35b61088a6004803603602081101561085e57600080fd5b81019080803573ffffffffffffffffffffffffffffffffffffffff169060200190929190505050610f73565b604051808215151515815260200191505060405180910390f35b610906600480360360408110156108ba57600080fd5b81019080803573ffffffffffffffffffffffffffffffffffffffff169060200190929190803573ffffffffffffffffffffffffffffffffffffffff169060200190929190505050610f90565b6040518082815260200191505060405180910390f35b61095e6004803603602081101561093257600080fd5b81019080803573ffffffffffffffffffffffffffffffffffffffff169060200190929190505050611017565b005b606060068054600181600116156101000203166002900480601f0160208091040260200160405190810160405280929190818152602001828054600181600116156101000203166002900480156109f85780601f106109cd576101008083540402835291602001916109f8565b820191906000526020600020905b8154815290600101906020018083116109db57829003601f168201915b5050505050905090565b6000600560009054906101000a900460ff1615610a1e57600080fd5b610a288383611034565b905092915050565b6000600254905090565b6000600954905090565b6000600560009054906101000a900460ff1615610a6057600080fd5b610a6b84848461104b565b90509392505050565b6000600860009054906101000a900460ff16905090565b6000600560009054906101000a900460ff1615610aa757600080fd5b610ab183836110fc565b905092915050565b610ac233610b99565b610acb57600080fd5b600560009054906101000a900460ff16610ae457600080fd5b6000600560006101000a81548160ff0219169083151502179055507f5db9ee0a495bf2e6ff9c91a7834c1ba4fdd244a5e8aa4e537bd38aeae4b073aa33604051808273ffffffffffffffffffffffffffffffffffffffff1673ffffffffffffffffffffffffffffffffffffffff16815260200191505060405180910390a1565b6000610b6f33610f73565b610b7857600080fd5b610b8283836111a1565b6001905092915050565b610b9633826112f3565b50565b6000610baf82600461144590919063ffffffff16565b9050919050565b6000600560009054906101000a900460ff16905090565b610bd6336114d7565b565b60008060008373ffffffffffffffffffffffffffffffffffffffff1673ffffffffffffffffffffffffffffffffffffffff168152602001908152602001600020549050919050565b610c28610df4565b610c3157600080fd5b600073ffffffffffffffffffffffffffffffffffffffff16600860019054906101000a900473ffffffffffffffffffffffffffffffffffffffff1673ffffffffffffffffffffffffffffffffffffffff167f8be0079c531659141344cd1fd0a4f28419497f9722a3daafe3b4186f6b6457e060405160405180910390a36000600860016101000a81548173ffffffffffffffffffffffffffffffffffffffff021916908373ffffffffffffffffffffffffffffffffffffffff160217905550565b610cfc8282611531565b5050565b610d0933610b99565b610d1257600080fd5b610d1b816115d8565b50565b610d2733610b99565b610d3057600080fd5b600560009054906101000a900460ff1615610d4a57600080fd5b6001600560006101000a81548160ff0219169083151502179055507f62e78cea01bee320cd4e420270b5ea74000d11b0c9f74754ebdbfc544b05a25833604051808273ffffffffffffffffffffffffffffffffffffffff1673ffffffffffffffffffffffffffffffffffffffff16815260200191505060405180910390a1565b6000600860019054906101000a900473ffffffffffffffffffffffffffffffffffffffff16905090565b6000600860019054906101000a900473ffffffffffffffffffffffffffffffffffffffff1673ffffffffffffffffffffffffffffffffffffffff163373ffffffffffffffffffffffffffffffffffffffff1614905090565b606060078054600181600116156101000203166002900480601f016020809104026020016040519081016040528092919081815260200182805460018160011615610100020316600290048015610ee45780601f10610eb957610100808354040283529160200191610ee4565b820191906000526020600020905b815481529060010190602001808311610ec757829003601f168201915b5050505050905090565b610ef733610f73565b610f0057600080fd5b610f0981611632565b50565b610f153361168c565b565b6000600560009054906101000a900460ff1615610f3357600080fd5b610f3d83836116e6565b905092915050565b6000600560009054906101000a900460ff1615610f6157600080fd5b610f6b838361178b565b905092915050565b6000610f8982600361144590919063ffffffff16565b9050919050565b6000600160008473ffffffffffffffffffffffffffffffffffffffff1673ffffffffffffffffffffffffffffffffffffffff16815260200190815260200160002060008373ffffffffffffffffffffffffffffffffffffffff1673ffffffffffffffffffffffffffffffffffffffff16815260200190815260200160002054905092915050565b61101f610df4565b61102857600080fd5b611031816117a2565b50565b600061104133848461189c565b6001905092915050565b60006110588484846119fb565b6110f184336110ec85600160008a73ffffffffffffffffffffffffffffffffffffffff1673ffffffffffffffffffffffffffffffffffffffff16815260200190815260200160002060003373ffffffffffffffffffffffffffffffffffffffff1673ffffffffffffffffffffffffffffffffffffffff16815260200190815260200160002054611bc590919063ffffffff16565b61189c565b600190509392505050565b6000611197338461119285600160003373ffffffffffffffffffffffffffffffffffffffff1673ffffffffffffffffffffffffffffffffffffffff16815260200190815260200160002060008973ffffffffffffffffffffffffffffffffffffffff1673ffffffffffffffffffffffffffffffffffffffff16815260200190815260200160002054611be590919063ffffffff16565b61189c565b6001905092915050565b600073ffffffffffffffffffffffffffffffffffffffff168273ffffffffffffffffffffffffffffffffffffffff1614156111db57600080fd5b6111f081600254611be590919063ffffffff16565b600281905550611247816000808573ffffffffffffffffffffffffffffffffffffffff1673ffffffffffffffffffffffffffffffffffffffff16815260200190815260200160002054611be590919063ffffffff16565b6000808473ffffffffffffffffffffffffffffffffffffffff1673ffffffffffffffffffffffffffffffffffffffff168152602001908152602001600020819055508173ffffffffffffffffffffffffffffffffffffffff16600073ffffffffffffffffffffffffffffffffffffffff167fddf252ad1be2c89b69c2b068fc378daa952ba7f163c4a11628f55a4df523b3ef836040518082815260200191505060405180910390a35050565b600073ffffffffffffffffffffffffffffffffffffffff168273ffffffffffffffffffffffffffffffffffffffff16141561132d57600080fd5b61134281600254611bc590919063ffffffff16565b600281905550611399816000808573ffffffffffffffffffffffffffffffffffffffff1673ffffffffffffffffffffffffffffffffffffffff16815260200190815260200160002054611bc590919063ffffffff16565b6000808473ffffffffffffffffffffffffffffffffffffffff1673ffffffffffffffffffffffffffffffffffffffff16815260200190815260200160002081905550600073ffffffffffffffffffffffffffffffffffffffff168273ffffffffffffffffffffffffffffffffffffffff167fddf252ad1be2c89b69c2b068fc378daa952ba7f163c4a11628f55a4df523b3ef836040518082815260200191505060405180910390a35050565b60008073ffffffffffffffffffffffffffffffffffffffff168273ffffffffffffffffffffffffffffffffffffffff16141561148057600080fd5b8260000160008373ffffffffffffffffffffffffffffffffffffffff1673ffffffffffffffffffffffffffffffffffffffff16815260200190815260200160002060009054906101000a900460ff16905092915050565b6114eb816004611c0490919063ffffffff16565b8073ffffffffffffffffffffffffffffffffffffffff167fcd265ebaf09df2871cc7bd4133404a235ba12eff2041bb89d9c714a2621c7c7e60405160405180910390a250565b61153b82826112f3565b6115d482336115cf84600160008873ffffffffffffffffffffffffffffffffffffffff1673ffffffffffffffffffffffffffffffffffffffff16815260200190815260200160002060003373ffffffffffffffffffffffffffffffffffffffff1673ffffffffffffffffffffffffffffffffffffffff16815260200190815260200160002054611bc590919063ffffffff16565b61189c565b5050565b6115ec816004611caf90919063ffffffff16565b8073ffffffffffffffffffffffffffffffffffffffff167f6719d08c1888103bea251a4ed56406bd0c3e69723c8a1686e017e7bbe159b6f860405160405180910390a250565b611646816003611caf90919063ffffffff16565b8073ffffffffffffffffffffffffffffffffffffffff167f6ae172837ea30b801fbfcdd4108aa1d5bf8ff775444fd70256b44e6bf3dfc3f660405160405180910390a250565b6116a0816003611c0490919063ffffffff16565b8073ffffffffffffffffffffffffffffffffffffffff167fe94479a9f7e1952cc78f2d6baab678adc1b772d936c6583def489e524cb6669260405160405180910390a250565b6000611781338461177c85600160003373ffffffffffffffffffffffffffffffffffffffff1673ffffffffffffffffffffffffffffffffffffffff16815260200190815260200160002060008973ffffffffffffffffffffffffffffffffffffffff1673ffffffffffffffffffffffffffffffffffffffff16815260200190815260200160002054611bc590919063ffffffff16565b61189c565b6001905092915050565b60006117983384846119fb565b6001905092915050565b600073ffffffffffffffffffffffffffffffffffffffff168173ffffffffffffffffffffffffffffffffffffffff1614156117dc57600080fd5b8073ffffffffffffffffffffffffffffffffffffffff16600860019054906101000a900473ffffffffffffffffffffffffffffffffffffffff1673ffffffffffffffffffffffffffffffffffffffff167f8be0079c531659141344cd1fd0a4f28419497f9722a3daafe3b4186f6b6457e060405160405180910390a380600860016101000a81548173ffffffffffffffffffffffffffffffffffffffff021916908373ffffffffffffffffffffffffffffffffffffffff16021790555050565b600073ffffffffffffffffffffffffffffffffffffffff168273ffffffffffffffffffffffffffffffffffffffff1614156118d657600080fd5b600073ffffffffffffffffffffffffffffffffffffffff168373ffffffffffffffffffffffffffffffffffffffff16141561191057600080fd5b80600160008573ffffffffffffffffffffffffffffffffffffffff1673ffffffffffffffffffffffffffffffffffffffff16815260200190815260200160002060008473ffffffffffffffffffffffffffffffffffffffff1673ffffffffffffffffffffffffffffffffffffffff168152602001908152602001600020819055508173ffffffffffffffffffffffffffffffffffffffff168373ffffffffffffffffffffffffffffffffffffffff167f8c5be1e5ebec7d5bd14f71427d1e84f3dd0314c0f7b2291e5b200ac8c7c3b925836040518082815260200191505060405180910390a3505050565b600073ffffffffffffffffffffffffffffffffffffffff168273ffffffffffffffffffffffffffffffffffffffff161415611a3557600080fd5b611a86816000808673ffffffffffffffffffffffffffffffffffffffff1673ffffffffffffffffffffffffffffffffffffffff16815260200190815260200160002054611bc590919063ffffffff16565b6000808573ffffffffffffffffffffffffffffffffffffffff1673ffffffffffffffffffffffffffffffffffffffff16815260200190815260200160002081905550611b19816000808573ffffffffffffffffffffffffffffffffffffffff1673ffffffffffffffffffffffffffffffffffffffff16815260200190815260200160002054611be590919063ffffffff16565b6000808473ffffffffffffffffffffffffffffffffffffffff1673ffffffffffffffffffffffffffffffffffffffff168152602001908152602001600020819055508173ffffffffffffffffffffffffffffffffffffffff168373ffffffffffffffffffffffffffffffffffffffff167fddf252ad1be2c89b69c2b068fc378daa952ba7f163c4a11628f55a4df523b3ef836040518082815260200191505060405180910390a3505050565b600082821115611bd457600080fd5b600082840390508091505092915050565b600080828401905083811015611bfa57600080fd5b8091505092915050565b600073ffffffffffffffffffffffffffffffffffffffff168173ffffffffffffffffffffffffffffffffffffffff161415611c3e57600080fd5b611c488282611445565b611c5157600080fd5b60008260000160008373ffffffffffffffffffffffffffffffffffffffff1673ffffffffffffffffffffffffffffffffffffffff16815260200190815260200160002060006101000a81548160ff0219169083151502179055505050565b600073ffffffffffffffffffffffffffffffffffffffff168173ffffffffffffffffffffffffffffffffffffffff161415611ce957600080fd5b611cf38282611445565b15611cfd57600080fd5b60018260000160008373ffffffffffffffffffffffffffffffffffffffff1673ffffffffffffffffffffffffffffffffffffffff16815260200190815260200160002060006101000a81548160ff021916908315150217905550505056fea165627a7a72305820ba5673727d90117bf056f4a7b7b27076662a37f6ac91820b4a8cdf95e4233d6b0029",
  "source": "pragma solidity ^0.5.2;\n\nimport \"openzeppelin-solidity/contracts/math/SafeMath.sol\";\nimport \"openzeppelin-solidity/contracts/token/ERC20/SafeERC20.sol\";\nimport \"./ProblemToken.sol\";\n\ncontract Daimon {\n    using SafeMath for uint256;\n    using SafeERC20 for ProblemToken;\n    \n    uint256[] private _currentDistances;\n    uint256[] private _currentScores;    \n    bytes32 private _currentModelDigest;\n\n    ProblemToken private _token;\n    uint256 private _createdAt;\n    uint256 private _startTime;\n    uint256 private _nextBlockTime;\n    uint256 private _blockTime;\n    uint256 private _multiplier;\n\n    struct ProblemBlock {\n        address submitter;\n        bool submitted;\n    }\n    bytes32[] private _problemBlocks;\n    mapping (bytes32 => ProblemBlock) _problemBlocksMap;\n\n    struct Validation {\n        address[] validators;\n        mapping (address => bool) validatorsMap;\n        uint256[] distances;\n        // Must agree on how to score the distance. This will effect how the reward is given out.\n        uint256[] scores;\n    }\n    struct ImprovementBlock {\n        address submitter;\n        mapping (bytes32 => Validation) validation;\n        bytes32[] distancesDigests;\n        mapping (bytes32 => bool) distancesDigestsMap;\n    }\n\n    mapping (bytes32 => ImprovementBlock) private _models;\n\n    bytes32[] private _modelDigests;\n    uint256 private _max;\n    bytes32 private _maxModelDigest;\n    bytes32 private _maxDistancesDigest;\n    uint256[] private _maxDistances;\n    uint256[] private _maxScores;\n    \n    constructor (\n        string memory name, \n        string memory symbol, \n        uint8 decimals,\n        uint256 problemDefinitionPeriodInSeconds,\n        uint256 blockTimeInSeconds\n    ) public {\n        _token = new ProblemToken(name, symbol, decimals);\n        _createdAt = block.timestamp;\n        _startTime = _createdAt + problemDefinitionPeriodInSeconds;\n        _blockTime = blockTimeInSeconds;\n        _nextBlockTime = _startTime + _blockTime;\n        _multiplier = _token.multiplier();\n    }\n\n    // submit test set    \n    function submitTestSet(\n        bytes32 testDigest\n    ) public {\n        require(block.timestamp < _startTime, 'period for submitting test set has ended'); \n        if(_problemBlocksMap[testDigest].submitted != true){\n            _problemBlocksMap[testDigest].submitter = msg.sender;\n            _problemBlocksMap[testDigest].submitted = true;\n            _currentDistances.push(_multiplier);\n            _currentScores.push(0);\n            _maxDistances.push(_multiplier);\n            _maxScores.push(0);\n            _problemBlocks.push(testDigest);\n            emit TestSetSubmitted(msg.sender, testDigest, _problemBlocks.length-1, _startTime);\n        }\n    }\n\n    // submit model\n    function submitModel(\n        bytes32 modelDigest\n    ) public {\n        require(block.timestamp >= _startTime, 'voting period has not started yet.');\n        require(block.timestamp < _nextBlockTime, 'voting period has ended, please commit this block first.');\n        _models[modelDigest].submitter = msg.sender;\n        _modelDigests.push(modelDigest);\n        emit ModelSubmitted(msg.sender, modelDigest, _modelDigests.length-1, _nextBlockTime);\n    }\n    \n    function _toBytes(uint256 x) internal view returns (bytes memory b) {\n        b = new bytes(32);\n        assembly { mstore(add(b, 32), x) }\n    }\n\n    function _digestDistancesScores(uint256[] memory distances, uint256[] memory scores) internal view returns (bytes32 digest) {\n        bytes memory distancesBytes = new bytes(2*32*distances.length);\n        uint byteLength = 0;\n        for (uint i = 0; i < distances.length; i++) {\n            bytes memory byteString = _toBytes(distances[i]);\n            for (uint j = 0; j < 32; j++) {\n                distancesBytes[byteLength] = byteString[j];\n                byteLength += 1;\n            }\n        }\n        for (uint i = 0; i < scores.length; i++) {\n            bytes memory byteString = _toBytes(scores[i]);\n            for (uint j = 0; j < 32; j++) {\n                distancesBytes[byteLength] = byteString[j];\n                byteLength += 1;\n            }\n        }\n        digest = keccak256(distancesBytes);\n    }\n\n    function vote(\n        bytes32 modelDigest,\n        uint256[] memory distances,\n        uint256[] memory scores\n    ) public {\n        require(block.timestamp < _nextBlockTime, 'voting period has ended, please commit this period first');\n        require(distances.length == _problemBlocks.length, 'distances length must be equal to the problems length');\n        for (uint i = 0; i < _problemBlocks.length; i++) {\n            require(distances[i] < _currentDistances[i], 'all distances must be less than all current distances');  \n        }\n        bytes32 distancesDigest = _digestDistancesScores(distances, scores);\n        // check if this validator already vote for this modelDigest \n        \n        if(_models[modelDigest].validation[distancesDigest].validatorsMap[msg.sender] != true){\n            emit BlockVoted(msg.sender, modelDigest, distancesDigest, distances, scores, _nextBlockTime);\n\n            _models[modelDigest].validation[distancesDigest].validatorsMap[msg.sender] = true;\n            _models[modelDigest].validation[distancesDigest].validators.push(msg.sender);\n            _models[modelDigest].validation[distancesDigest].distances = distances;\n            _models[modelDigest].validation[distancesDigest].scores = scores;\n            // check if this modelDigest already in the set of distancesDigests\n            if(_models[modelDigest].distancesDigestsMap[distancesDigest] != true){\n                _models[modelDigest].distancesDigestsMap[distancesDigest] = true;\n                _models[modelDigest].distancesDigests.push(distancesDigest);\n            }\n            // update the winning vote.\n            uint256 newMax = _models[modelDigest].validation[distancesDigest].validators.length;\n            if(newMax > _max){\n                _maxModelDigest = modelDigest;\n                _maxDistancesDigest = distancesDigest;\n                for (uint i = 0; i < _problemBlocks.length; i++) {\n                  _maxDistances[i] = distances[i];\n                  _maxScores[i] = scores[i];\n                }\n\n                emit NewLeadingBlock(_maxModelDigest, _maxDistancesDigest, _maxDistances, _maxScores, _nextBlockTime);\n            }\n        }\n\n    }\n\n    // distance must be multiplied by _token.multiplier() already\n    function _reward(uint256 winningScore, uint256 currentScore) internal view returns (uint256) {\n        return (winningScore-currentScore);\n    }\n\n    function _rewardScaling(uint256 amount, uint256 position) internal view returns (uint256) {\n        // half each position starting from 0\n        return amount/((2)**(position));\n    }\n\n    function _moveBlock() internal {\n        // move to next block\n        delete _max;\n        delete _maxModelDigest;\n        delete _maxDistancesDigest;\n        for (uint i = 0; i < _problemBlocks.length; i++) {\n          if(i < _maxDistances.length){\n            delete _maxDistances[i];\n          }\n          if(i < _maxScores.length){\n            delete _maxScores[i];\n          }\n          // delete _modelDigests;\n        }\n        _nextBlockTime = block.timestamp + _blockTime;\n\n        emit BlockCommitted(_currentModelDigest, _currentDistances, _nextBlockTime);\n    }\n\n    function commit() public {\n        require(block.timestamp >= _nextBlockTime, 'voting period has not ended');\n        \n        if(_maxModelDigest == 0){\n          // no vote, move to next block\n          _moveBlock();\n          return;\n        }\n\n        // reward\n        uint256 amount = 0;\n        for (uint i = 0; i < _problemBlocks.length; i++) {\n            amount += _reward(_maxScores[i], _currentScores[i]);\n        }\n        amount = amount/_problemBlocks.length;\n        \n        _token.mint(_models[_maxModelDigest].submitter, amount);        \n        for (uint j = 0; j < _models[_maxModelDigest].validation[_maxDistancesDigest].validators.length; j++) {\n            address validator = _models[_maxModelDigest].validation[_maxDistancesDigest].validators[j];\n            uint256 valAmount = _rewardScaling(amount, j);\n            _token.mint(validator, valAmount);\n        }\n\n        // update current score\n        for (uint i = 0; i < _problemBlocks.length; i++) {\n          _currentDistances[i] = _maxDistances[i];\n          _currentScores[i] = _maxScores[i];\n        }\n        _currentModelDigest = _maxModelDigest;\n\n        _moveBlock();\n    }\n\n    // -- events --\n    event TestSetSubmitted(address submitter, bytes32 testSetDigest, uint256 position, uint256 endAt);\n    event ModelSubmitted(address submitter, bytes32 modelDigest, uint256 position, uint256 endAt);\n    event BlockVoted(address submitter, bytes32 modelDigest, bytes32 distancesDigest, uint256[] distances, uint256[] scores, uint256 endAt);\n    event NewLeadingBlock(bytes32 modelDigest, bytes32 distancesDigest, uint256[] distances, uint256[] scores, uint256 endAt);\n    event BlockCommitted(bytes32 currentModelDigest, uint256[] currentDistances, uint256 nextEndAt);\n    event NewBlockTime(uint256 blockTime);\n\n    // -- public setters --    \n    // function setBlockTime(uint256 blockTime) public {\n    //     _blockTime = blockTime;\n    //     emit NewBlockTime(_blockTime);\n    // }\n\n    // -- public getters --\n    function getTokenAddress() public view returns (address) {\n        return address(_token);\n    }\n    function getNumberOfTestSets() public view returns (uint256) {\n        return _problemBlocks.length;\n    }\n    function getCurrentScoreAt(uint256 i) public view returns (uint256) {\n        return _currentScores[i];\n    }\n    function getCurrentDistanceAt(uint256 i) public view returns (uint256) {\n        return _currentDistances[i];\n    }\n    function getCurrentModelDigest() public view returns (bytes32) {\n        return _currentModelDigest;\n    }\n    function getStartTime() public view returns (uint256) {\n        return _startTime;\n    }\n    function getNextBlockTime() public view returns (uint256) {\n        return _nextBlockTime;\n    }\n    function getBlockTime() public view returns (uint256) {\n        return _blockTime;\n    }\n    function getCreatedTime() public view returns (uint256) {\n        return _createdAt;\n    }\n    function getCurrentTime() public view returns (uint256) {\n        return block.timestamp;\n    }\n    function getTestSetDigestAt(uint256 i) public view returns (bytes32) {\n        require(i < _problemBlocks.length);\n        return _problemBlocks[i];\n    }\n    function getRewardScaling(uint256 amount, uint256 position) public returns (uint256) {        \n        return _rewardScaling(amount, position);\n    }\n    function getDigestDistancesScores(uint256[] memory distances, uint256[] memory scores) public returns (bytes32 digest) {\n        return _digestDistancesScores(distances, scores);\n    }\n\n    function getNumberOfModels() public view returns (uint256) {\n        return _modelDigests.length;\n    }\n    function getModelDigestAt(uint256 i) public view returns (bytes32) {\n        require(i < _modelDigests.length);\n        return _modelDigests[i];\n    }\n    function multiplier() public view returns (uint256) {\n        return _multiplier;\n    }\n}",
  "sourcePath": "/home/steerapi/thesis/daimon/smartcontracts/contracts/Daimon.sol",
  "compiler": {
    "name": "solc",
    "version": "0.5.7+commit.6da8b019.Emscripten.clang"
  },
  "schemaVersion": "3.0.6",
  "updatedAt": "2019-04-10T06:32:18.779Z",
  "devdoc": {
    "methods": {}
  },
  "userdoc": {
    "methods": {}
  }
}