{
  "contractName": "Factory",
  "abi": [
    {
      "constant": true,
      "inputs": [
        {
          "name": "",
          "type": "address"
        }
      ],
      "name": "isInstantiation",
      "outputs": [
        {
          "name": "",
          "type": "bool"
        }
      ],
      "payable": false,
      "stateMutability": "view",
      "type": "function"
    },
    {
      "constant": true,
      "inputs": [
        {
          "name": "",
          "type": "address"
        },
        {
          "name": "",
          "type": "uint256"
        }
      ],
      "name": "instantiations",
      "outputs": [
        {
          "name": "",
          "type": "address"
        }
      ],
      "payable": false,
      "stateMutability": "view",
      "type": "function"
    },
    {
      "anonymous": false,
      "inputs": [
        {
          "indexed": false,
          "name": "sender",
          "type": "address"
        },
        {
          "indexed": false,
          "name": "instantiation",
          "type": "address"
        }
      ],
      "name": "ContractInstantiation",
      "type": "event"
    },
    {
      "constant": true,
      "inputs": [
        {
          "name": "creator",
          "type": "address"
        }
      ],
      "name": "getInstantiationCount",
      "outputs": [
        {
          "name": "",
          "type": "uint256"
        }
      ],
      "payable": false,
      "stateMutability": "view",
      "type": "function"
    }
  ],
  "bytecode": "0x608060405234801561001057600080fd5b50610288806100206000396000f3fe608060405234801561001057600080fd5b506004361061005e576000357c0100000000000000000000000000000000000000000000000000000000900480632f4f33161461006357806357183c82146100bf5780638f8384781461014d575b600080fd5b6100a56004803603602081101561007957600080fd5b81019080803573ffffffffffffffffffffffffffffffffffffffff1690602001909291905050506101a5565b604051808215151515815260200191505060405180910390f35b61010b600480360360408110156100d557600080fd5b81019080803573ffffffffffffffffffffffffffffffffffffffff169060200190929190803590602001909291905050506101c5565b604051808273ffffffffffffffffffffffffffffffffffffffff1673ffffffffffffffffffffffffffffffffffffffff16815260200191505060405180910390f35b61018f6004803603602081101561016357600080fd5b81019080803573ffffffffffffffffffffffffffffffffffffffff169060200190929190505050610210565b6040518082815260200191505060405180910390f35b60006020528060005260406000206000915054906101000a900460ff1681565b600160205281600052604060002081815481106101de57fe5b906000526020600020016000915091509054906101000a900473ffffffffffffffffffffffffffffffffffffffff1681565b6000600160008373ffffffffffffffffffffffffffffffffffffffff1673ffffffffffffffffffffffffffffffffffffffff16815260200190815260200160002080549050905091905056fea165627a7a72305820bf309b763cd20c6ad074a413c208220645955bdea3e21afd43ee11ad0f9264e50029",
  "source": "pragma solidity ^0.5.2;\n\ncontract Factory {\n    /*\n     *  Events\n     */\n    event ContractInstantiation(address sender, address instantiation);\n\n    /*\n     *  Storage\n     */\n    mapping(address => bool) public isInstantiation;\n    mapping(address => address[]) public instantiations;\n\n    /*\n     * Public functions\n     */\n    /// @dev Returns number of instantiations by creator.\n    /// @param creator Contract creator.\n    /// @return Returns number of instantiations by creator.\n    function getInstantiationCount(address creator)\n        public\n        view\n        returns (uint)\n    {\n        return instantiations[creator].length;\n    }\n\n    /*\n     * Internal functions\n     */\n    /// @dev Registers contract in factory registry.\n    /// @param instantiation Address of contract instantiation.\n    function register(address instantiation)\n        internal\n    {\n        isInstantiation[instantiation] = true;\n        instantiations[msg.sender].push(instantiation);\n        emit ContractInstantiation(msg.sender, instantiation);\n    }\n}",
  "sourcePath": "/home/steerapi/thesis/daimon/smartcontracts/contracts/Factory.sol",
  "compiler": {
    "name": "solc",
    "version": "0.5.7+commit.6da8b019.Emscripten.clang"
  },
  "schemaVersion": "3.0.6",
  "updatedAt": "2019-04-04T03:34:53.004Z",
  "devdoc": {
    "methods": {
      "getInstantiationCount(address)": {
        "details": "Returns number of instantiations by creator.",
        "params": {
          "creator": "Contract creator."
        },
        "return": "Returns number of instantiations by creator."
      }
    }
  },
  "userdoc": {
    "methods": {}
  }
}